{
  "_format": "hh-sol-artifact-1",
  "contractName": "ShrimpSupplyChain",
  "sourceName": "contracts/ShrimpSupplyChain.sol",
  "abi": [
    {
      "anonymous": false,
      "inputs": [
        {
          "indexed": false,
          "internalType": "address",
          "name": "entityAddress",
          "type": "address"
        },
        {
          "indexed": false,
          "internalType": "string",
          "name": "name",
          "type": "string"
        },
        {
          "indexed": false,
          "internalType": "enum ShrimpSupplyChain.EntityType",
          "name": "entityType",
          "type": "uint8"
        }
      ],
      "name": "EntityRegistered",
      "type": "event"
    },
    {
      "anonymous": false,
      "inputs": [
        {
          "indexed": false,
          "internalType": "string",
          "name": "productId",
          "type": "string"
        },
        {
          "indexed": false,
          "internalType": "string",
          "name": "lotCode",
          "type": "string"
        },
        {
          "indexed": false,
          "internalType": "uint256",
          "name": "quantity",
          "type": "uint256"
        },
        {
          "indexed": false,
          "internalType": "address",
          "name": "owner",
          "type": "address"
        }
      ],
      "name": "LotCreated",
      "type": "event"
    },
    {
      "anonymous": false,
      "inputs": [
        {
          "indexed": false,
          "internalType": "string[]",
          "name": "inputLots",
          "type": "string[]"
        },
        {
          "indexed": false,
          "internalType": "string",
          "name": "outputLotCode",
          "type": "string"
        },
        {
          "indexed": false,
          "internalType": "string",
          "name": "productId",
          "type": "string"
        }
      ],
      "name": "LotProcessed",
      "type": "event"
    },
    {
      "anonymous": false,
      "inputs": [
        {
          "indexed": false,
          "internalType": "string",
          "name": "transactionId",
          "type": "string"
        },
        {
          "indexed": false,
          "internalType": "string",
          "name": "lotCode",
          "type": "string"
        },
        {
          "indexed": false,
          "internalType": "address",
          "name": "by",
          "type": "address"
        }
      ],
      "name": "LotReceived",
      "type": "event"
    },
    {
      "anonymous": false,
      "inputs": [
        {
          "indexed": false,
          "internalType": "string",
          "name": "transactionId",
          "type": "string"
        },
        {
          "indexed": false,
          "internalType": "string",
          "name": "lotCode",
          "type": "string"
        },
        {
          "indexed": false,
          "internalType": "address",
          "name": "from",
          "type": "address"
        },
        {
          "indexed": false,
          "internalType": "address",
          "name": "to",
          "type": "address"
        }
      ],
      "name": "LotShipped",
      "type": "event"
    },
    {
      "anonymous": false,
      "inputs": [
        {
          "indexed": false,
          "internalType": "string",
          "name": "lotCode",
          "type": "string"
        },
        {
          "indexed": false,
          "internalType": "enum ShrimpSupplyChain.LotStatus",
          "name": "newStatus",
          "type": "uint8"
        }
      ],
      "name": "LotStatusUpdated",
      "type": "event"
    },
    {
      "inputs": [
        {
          "internalType": "string",
          "name": "_lotCode",
          "type": "string"
        },
        {
          "internalType": "address",
          "name": "_newOwner",
          "type": "address"
        }
      ],
      "name": "adminFixLot",
      "outputs": [],
      "stateMutability": "nonpayable",
      "type": "function"
    },
    {
      "inputs": [
        {
          "internalType": "string",
          "name": "_lotCode",
          "type": "string"
        },
        {
          "internalType": "address",
          "name": "_entity",
          "type": "address"
        }
      ],
      "name": "canViewLotDetails",
      "outputs": [
        {
          "internalType": "bool",
          "name": "",
          "type": "bool"
        }
      ],
      "stateMutability": "view",
      "type": "function"
    },
    {
      "inputs": [
        {
          "internalType": "string",
          "name": "_productId",
          "type": "string"
        },
        {
          "internalType": "string",
          "name": "_lotCode",
          "type": "string"
        },
        {
          "internalType": "uint256",
          "name": "_quantity",
          "type": "uint256"
        },
        {
          "internalType": "string",
          "name": "_location",
          "type": "string"
        }
      ],
      "name": "createRawMaterialLot",
      "outputs": [],
      "stateMutability": "nonpayable",
      "type": "function"
    },
    {
      "inputs": [
        {
          "internalType": "address",
          "name": "",
          "type": "address"
        }
      ],
      "name": "entities",
      "outputs": [
        {
          "internalType": "string",
          "name": "name",
          "type": "string"
        },
        {
          "internalType": "enum ShrimpSupplyChain.EntityType",
          "name": "entityType",
          "type": "uint8"
        },
        {
          "internalType": "string",
          "name": "location",
          "type": "string"
        },
        {
          "internalType": "bool",
          "name": "isRegistered",
          "type": "bool"
        }
      ],
      "stateMutability": "view",
      "type": "function"
    },
    {
      "inputs": [
        {
          "internalType": "string",
          "name": "_lotCode",
          "type": "string"
        }
      ],
      "name": "getConsumerProvenance",
      "outputs": [
        {
          "internalType": "string",
          "name": "productId",
          "type": "string"
        },
        {
          "internalType": "string",
          "name": "lotCode",
          "type": "string"
        },
        {
          "internalType": "uint256",
          "name": "createdTimestamp",
          "type": "uint256"
        },
        {
          "internalType": "enum ShrimpSupplyChain.LotStatus",
          "name": "status",
          "type": "uint8"
        }
      ],
      "stateMutability": "view",
      "type": "function"
    },
    {
      "inputs": [
        {
          "internalType": "string",
          "name": "_lotCode",
          "type": "string"
        }
      ],
      "name": "getLotDetails",
      "outputs": [
        {
          "components": [
            {
              "internalType": "string",
              "name": "productId",
              "type": "string"
            },
            {
              "internalType": "string",
              "name": "lotCode",
              "type": "string"
            },
            {
              "internalType": "uint256",
              "name": "quantity",
              "type": "uint256"
            },
            {
              "internalType": "address",
              "name": "currentOwner",
              "type": "address"
            },
            {
              "internalType": "enum ShrimpSupplyChain.LotStatus",
              "name": "status",
              "type": "uint8"
            },
            {
              "internalType": "string[]",
              "name": "parentLots",
              "type": "string[]"
            },
            {
              "internalType": "uint256",
              "name": "createdTimestamp",
              "type": "uint256"
            },
            {
              "internalType": "string",
              "name": "location",
              "type": "string"
            }
          ],
          "internalType": "struct ShrimpSupplyChain.Lot",
          "name": "",
          "type": "tuple"
        }
      ],
      "stateMutability": "view",
      "type": "function"
    },
    {
      "inputs": [],
      "name": "getMyLots",
      "outputs": [
        {
          "internalType": "string[]",
          "name": "",
          "type": "string[]"
        }
      ],
      "stateMutability": "view",
      "type": "function"
    },
    {
      "inputs": [
        {
          "internalType": "string",
          "name": "",
          "type": "string"
        },
        {
          "internalType": "uint256",
          "name": "",
          "type": "uint256"
        }
      ],
      "name": "lotHistoryParticipants",
      "outputs": [
        {
          "internalType": "address",
          "name": "",
          "type": "address"
        }
      ],
      "stateMutability": "view",
      "type": "function"
    },
    {
      "inputs": [
        {
          "internalType": "string",
          "name": "",
          "type": "string"
        },
        {
          "internalType": "uint256",
          "name": "",
          "type": "uint256"
        }
      ],
      "name": "lotTransactions",
      "outputs": [
        {
          "internalType": "string",
          "name": "transactionId",
          "type": "string"
        },
        {
          "internalType": "address",
          "name": "shippingEntityId",
          "type": "address"
        },
        {
          "internalType": "address",
          "name": "receivingEntityId",
          "type": "address"
        },
        {
          "internalType": "string",
          "name": "productId",
          "type": "string"
        },
        {
          "internalType": "string",
          "name": "lotCode",
          "type": "string"
        },
        {
          "internalType": "uint256",
          "name": "quantity",
          "type": "uint256"
        },
        {
          "internalType": "int256",
          "name": "productTemperature",
          "type": "int256"
        },
        {
          "internalType": "uint256",
          "name": "timestamp",
          "type": "uint256"
        },
        {
          "internalType": "string",
          "name": "shippingLocation",
          "type": "string"
        },
        {
          "internalType": "string",
          "name": "receivingLocation",
          "type": "string"
        }
      ],
      "stateMutability": "view",
      "type": "function"
    },
    {
      "inputs": [
        {
          "internalType": "string",
          "name": "",
          "type": "string"
        }
      ],
      "name": "lots",
      "outputs": [
        {
          "internalType": "string",
          "name": "productId",
          "type": "string"
        },
        {
          "internalType": "string",
          "name": "lotCode",
          "type": "string"
        },
        {
          "internalType": "uint256",
          "name": "quantity",
          "type": "uint256"
        },
        {
          "internalType": "address",
          "name": "currentOwner",
          "type": "address"
        },
        {
          "internalType": "enum ShrimpSupplyChain.LotStatus",
          "name": "status",
          "type": "uint8"
        },
        {
          "internalType": "uint256",
          "name": "createdTimestamp",
          "type": "uint256"
        },
        {
          "internalType": "string",
          "name": "location",
          "type": "string"
        }
      ],
      "stateMutability": "view",
      "type": "function"
    },
    {
      "inputs": [
        {
          "internalType": "address",
          "name": "",
          "type": "address"
        },
        {
          "internalType": "uint256",
          "name": "",
          "type": "uint256"
        }
      ],
      "name": "ownerLots",
      "outputs": [
        {
          "internalType": "string",
          "name": "",
          "type": "string"
        }
      ],
      "stateMutability": "view",
      "type": "function"
    },
    {
      "inputs": [
        {
          "internalType": "string",
          "name": "_name",
          "type": "string"
        },
        {
          "internalType": "enum ShrimpSupplyChain.EntityType",
          "name": "_entityType",
          "type": "uint8"
        },
        {
          "internalType": "string",
          "name": "_location",
          "type": "string"
        }
      ],
      "name": "registerEntity",
      "outputs": [],
      "stateMutability": "nonpayable",
      "type": "function"
    },
    {
      "inputs": [
        {
          "internalType": "string",
          "name": "_transactionId",
          "type": "string"
        },
        {
          "internalType": "address",
          "name": "_receivingEntityId",
          "type": "address"
        },
        {
          "internalType": "string",
          "name": "_productId",
          "type": "string"
        },
        {
          "internalType": "string",
          "name": "_lotCode",
          "type": "string"
        },
        {
          "internalType": "uint256",
          "name": "_quantity",
          "type": "uint256"
        },
        {
          "internalType": "int256",
          "name": "_productTemperature",
          "type": "int256"
        },
        {
          "internalType": "string",
          "name": "_shippingLocation",
          "type": "string"
        }
      ],
      "name": "shipLot",
      "outputs": [],
      "stateMutability": "nonpayable",
      "type": "function"
    }
  ],
  "bytecode": "0x6080604052348015600f57600080fd5b50612b208061001f6000396000f3fe608060405234801561001057600080fd5b50600436106100cf5760003560e01c8063766c18231161008c578063ae3b294411610066578063ae3b2944146101f7578063db0442d714610217578063e2d669921461022a578063fd2ca1c81461025057600080fd5b8063766c182314610189578063838c26da146101a957806393d21386146101cc57600080fd5b80630bcb7fb6146100d45780630eb9b569146100e95780631d8ee48a1461011b578063359d7e881461013e578063612fc90614610161578063668c104c14610176575b600080fd5b6100e76100e236600461209f565b610263565b005b6100fc6100f736600461213a565b6105be565b6040516101129a999897969594939291906121ce565b60405180910390f35b61012e610129366004612289565b6108f8565b60405161011294939291906122d5565b61015161014c36600461231b565b610a3c565b6040516101129493929190612367565b610169610dc6565b6040516101129190612407565b6100e761018436600461241a565b610eaa565b61019c610197366004612467565b610f65565b6040516101129190612491565b6101bc6101b736600461241a565b61101e565b6040519015158152602001610112565b6101df6101da36600461213a565b6110fa565b6040516001600160a01b039091168152602001610112565b61020a61020536600461231b565b611141565b60405161011291906124a4565b6100e761022536600461255e565b6114c7565b61023d61023836600461231b565b611b98565b604051610112979695949392919061263e565b6100e761025e3660046126ae565b611d88565b3360009081526002602052604090206003015460ff166102c25760405162461bcd60e51b8152602060048201526015602482015274115b9d1a5d1e481b9bdd081c9959da5cdd195c9959605a1b60448201526064015b60405180910390fd5b3360009081526002602052604081206001015460ff1660048111156102e9576102e96122ab565b146103415760405162461bcd60e51b815260206004820152602260248201527f4f6e6c792066697368696e6720626f6174732063616e20637265617465206c6f604482015261747360f01b60648201526084016102b9565b600083604051610351919061272b565b9081526020016040518091039020600101805461036d90612747565b1590506103bc5760405162461bcd60e51b815260206004820152601760248201527f4c6f7420636f646520616c72656164792065786973747300000000000000000060448201526064016102b9565b6040805161010081018252858152602081018590529081018390523360608201526080810160008152602001600060405190808252806020026020018201604052801561041d57816020015b60608152602001906001900390816104085790505b5081526020014281526020018281525060008460405161043d919061272b565b9081526040519081900360200190208151819061045a90826127cf565b506020820151600182019061046f90826127cf565b50604082015160028201556060820151600380830180546001600160a01b039093166001600160a01b031984168117825560808601519391926001600160a81b03199092161790600160a01b9084908111156104cd576104cd6122ab565b021790555060a082015180516104ed916004840191602090910190611ed8565b5060c0820151600582015560e0820151600682019061050c90826127cf565b50905050600383604051610520919061272b565b908152604080516020928190038301902080546001808201835560009283528483209091018054336001600160a01b03199091168117909155825260048452918120805492830181558152919091200161057a84826127cf565b507f634880550103f1a96f88184c4c45b9724a4e2da7538cfa13e0657a3652dc82a9848484336040516105b09493929190612890565b60405180910390a150505050565b815160208184018101805160018252928201918501919091209190528054829081106105e957600080fd5b90600052602060002090600a02016000915091505080600001805461060d90612747565b80601f016020809104026020016040519081016040528092919081815260200182805461063990612747565b80156106865780601f1061065b57610100808354040283529160200191610686565b820191906000526020600020905b81548152906001019060200180831161066957829003601f168201915b5050506001840154600285015460038601805495966001600160a01b03938416969290931694509192506106b990612747565b80601f01602080910402602001604051908101604052809291908181526020018280546106e590612747565b80156107325780601f1061070757610100808354040283529160200191610732565b820191906000526020600020905b81548152906001019060200180831161071557829003601f168201915b50505050509080600401805461074790612747565b80601f016020809104026020016040519081016040528092919081815260200182805461077390612747565b80156107c05780601f10610795576101008083540402835291602001916107c0565b820191906000526020600020905b8154815290600101906020018083116107a357829003601f168201915b5050505050908060050154908060060154908060070154908060080180546107e790612747565b80601f016020809104026020016040519081016040528092919081815260200182805461081390612747565b80156108605780601f1061083557610100808354040283529160200191610860565b820191906000526020600020905b81548152906001019060200180831161084357829003601f168201915b50505050509080600901805461087590612747565b80601f01602080910402602001604051908101604052809291908181526020018280546108a190612747565b80156108ee5780601f106108c3576101008083540402835291602001916108ee565b820191906000526020600020905b8154815290600101906020018083116108d157829003601f168201915b505050505090508a565b60026020526000908152604090208054819061091390612747565b80601f016020809104026020016040519081016040528092919081815260200182805461093f90612747565b801561098c5780601f106109615761010080835404028352916020019161098c565b820191906000526020600020905b81548152906001019060200180831161096f57829003601f168201915b5050506001840154600285018054949560ff9092169491935091506109b090612747565b80601f01602080910402602001604051908101604052809291908181526020018280546109dc90612747565b8015610a295780601f106109fe57610100808354040283529160200191610a29565b820191906000526020600020905b815481529060010190602001808311610a0c57829003601f168201915b5050506003909301549192505060ff1684565b60608060008060008086604051610a53919061272b565b908152602001604051809103902060405180610100016040529081600082018054610a7d90612747565b80601f0160208091040260200160405190810160405280929190818152602001828054610aa990612747565b8015610af65780601f10610acb57610100808354040283529160200191610af6565b820191906000526020600020905b815481529060010190602001808311610ad957829003601f168201915b50505050508152602001600182018054610b0f90612747565b80601f0160208091040260200160405190810160405280929190818152602001828054610b3b90612747565b8015610b885780601f10610b5d57610100808354040283529160200191610b88565b820191906000526020600020905b815481529060010190602001808311610b6b57829003601f168201915b5050509183525050600282015460208201526003808301546001600160a01b0381166040840152606090920191600160a01b900460ff1690811115610bcf57610bcf6122ab565b6003811115610be057610be06122ab565b815260200160048201805480602002602001604051908101604052809291908181526020016000905b82821015610cb5578382906000526020600020018054610c2890612747565b80601f0160208091040260200160405190810160405280929190818152602001828054610c5490612747565b8015610ca15780601f10610c7657610100808354040283529160200191610ca1565b820191906000526020600020905b815481529060010190602001808311610c8457829003601f168201915b505050505081526020019060010190610c09565b50505050815260200160058201548152602001600682018054610cd790612747565b80601f0160208091040260200160405190810160405280929190818152602001828054610d0390612747565b8015610d505780601f10610d2557610100808354040283529160200191610d50565b820191906000526020600020905b815481529060010190602001808311610d3357829003601f168201915b5050505050815250509050600081602001515111610da55760405162461bcd60e51b8152602060048201526012602482015271131bdd08191bd95cc81b9bdd08195e1a5cdd60721b60448201526064016102b9565b8051602082015160c083015160809093015191989097509195509350915050565b336000908152600460209081526040808320805482518185028101850190935280835260609492939192909184015b82821015610ea1578382906000526020600020018054610e1490612747565b80601f0160208091040260200160405190810160405280929190818152602001828054610e4090612747565b8015610e8d5780601f10610e6257610100808354040283529160200191610e8d565b820191906000526020600020905b815481529060010190602001808311610e7057829003601f168201915b505050505081526020019060010190610df5565b50505050905090565b73f39fd6e51aad88f6f4ce6ab8827279cfffb922663314610efa5760405162461bcd60e51b815260206004820152600a60248201526941646d696e206f6e6c7960b01b60448201526064016102b9565b80600083604051610f0b919061272b565b908152604080516020928190038301902060030180546001600160a01b0319166001600160a01b039485161790559183166000908152600482529182208054600181018255908352912001610f6083826127cf565b505050565b60046020528160005260406000208181548110610f8157600080fd5b90600052602060002001600091509150508054610f9d90612747565b80601f0160208091040260200160405190810160405280929190818152602001828054610fc990612747565b80156110165780601f10610feb57610100808354040283529160200191611016565b820191906000526020600020905b815481529060010190602001808311610ff957829003601f168201915b505050505081565b600060046001600160a01b03831660009081526002602052604090206001015460ff166004811115611052576110526122ab565b0361105f575060006110f4565b60005b600384604051611072919061272b565b908152604051908190036020019020548110156110ee57826001600160a01b03166003856040516110a3919061272b565b908152602001604051809103902082815481106110c2576110c26128d7565b6000918252602090912001546001600160a01b0316036110e65760019150506110f4565b600101611062565b50600090505b92915050565b8151602081840181018051600382529282019185019190912091905280548290811061112557600080fd5b6000918252602090912001546001600160a01b03169150829050565b611149611f2e565b611153823361101e565b6111aa5760405162461bcd60e51b815260206004820152602260248201527f4e6f7420617574686f72697a656420746f2076696577206c6f742064657461696044820152616c7360f01b60648201526084016102b9565b6000826040516111ba919061272b565b9081526020016040518091039020604051806101000160405290816000820180546111e490612747565b80601f016020809104026020016040519081016040528092919081815260200182805461121090612747565b801561125d5780601f106112325761010080835404028352916020019161125d565b820191906000526020600020905b81548152906001019060200180831161124057829003601f168201915b5050505050815260200160018201805461127690612747565b80601f01602080910402602001604051908101604052809291908181526020018280546112a290612747565b80156112ef5780601f106112c4576101008083540402835291602001916112ef565b820191906000526020600020905b8154815290600101906020018083116112d257829003601f168201915b5050509183525050600282015460208201526003808301546001600160a01b0381166040840152606090920191600160a01b900460ff1690811115611336576113366122ab565b6003811115611347576113476122ab565b815260200160048201805480602002602001604051908101604052809291908181526020016000905b8282101561141c57838290600052602060002001805461138f90612747565b80601f01602080910402602001604051908101604052809291908181526020018280546113bb90612747565b80156114085780601f106113dd57610100808354040283529160200191611408565b820191906000526020600020905b8154815290600101906020018083116113eb57829003601f168201915b505050505081526020019060010190611370565b5050505081526020016005820154815260200160068201805461143e90612747565b80601f016020809104026020016040519081016040528092919081815260200182805461146a90612747565b80156114b75780601f1061148c576101008083540402835291602001916114b7565b820191906000526020600020905b81548152906001019060200180831161149a57829003601f168201915b5050505050815250509050919050565b3360009081526002602052604090206003015460ff166115215760405162461bcd60e51b8152602060048201526015602482015274115b9d1a5d1e481b9bdd081c9959da5cdd195c9959605a1b60448201526064016102b9565b60043360009081526002602052604090206001015460ff16600481111561154a5761154a6122ab565b036115a35760405162461bcd60e51b8152602060048201526024808201527f436f6e73756d6572732063616e6e6f7420706572666f726d20746869732061636044820152633a34b7b760e11b60648201526084016102b9565b83336001600160a01b03166000826040516115be919061272b565b908152604051908190036020019020600301546001600160a01b0316146116175760405162461bcd60e51b815260206004820152600d60248201526c2737ba103637ba1037bbb732b960991b60448201526064016102b9565b6001600160a01b03871660009081526002602052604090206003015460ff166116825760405162461bcd60e51b815260206004820152601f60248201527f526563656976696e6720656e74697479206e6f7420726567697374657265640060448201526064016102b9565b60046001600160a01b03881660009081526002602052604090206001015460ff1660048111156116b4576116b46122ab565b036117015760405162461bcd60e51b815260206004820152601760248201527f43616e6e6f74207368697020746f20636f6e73756d657200000000000000000060448201526064016102b9565b83600086604051611712919061272b565b908152602001604051809103902060020154101561176a5760405162461bcd60e51b8152602060048201526015602482015274496e73756666696369656e74207175616e7469747960581b60448201526064016102b9565b336000908152600460205260408120905b815481101561185057868051906020012082828154811061179e5761179e6128d7565b906000526020600020016040516117b591906128ed565b60405180910390200361184857815482906117d290600190612962565b815481106117e2576117e26128d7565b906000526020600020018282815481106117fe576117fe6128d7565b9060005260206000200190816118149190612983565b508180548061182557611825612a57565b6001900381819060005260206000200160006118419190611f8d565b9055611850565b60010161177b565b5060006040518061014001604052808b8152602001336001600160a01b031681526020018a6001600160a01b03168152602001898152602001888152602001878152602001868152602001428152602001858152602001600260008c6001600160a01b03166001600160a01b0316815260200190815260200160002060020180546118da90612747565b80601f016020809104026020016040519081016040528092919081815260200182805461190690612747565b80156119535780601f1061192857610100808354040283529160200191611953565b820191906000526020600020905b81548152906001019060200180831161193657829003601f168201915b5050505050815250905060018760405161196d919061272b565b908152604051602091819003820190208054600181018255600091825291902082518392600a029091019081906119a490826127cf565b5060208201516001820180546001600160a01b039283166001600160a01b0319918216179091556040840151600284018054919093169116179055606082015160038201906119f390826127cf565b5060808201516004820190611a0890826127cf565b5060a0820151600582015560c0820151600682015560e082015160078201556101008201516008820190611a3c90826127cf565b506101208201516009820190611a5290826127cf565b50505088600088604051611a66919061272b565b908152604080516020928190038301812060030180546001600160a01b0319166001600160a01b03958616179055928c16600090815260029283905290812090910191611ab4908a9061272b565b90815260200160405180910390206006019081611ad19190612983565b506001600160a01b038916600090815260046020908152604082208054600181018255908352912001611b0488826127cf565b50600387604051611b15919061272b565b908152604051602091819003820181208054600181018255600091825292902090910180546001600160a01b0319166001600160a01b038c161790557fd975b5ebb11872e87bf87872bc2f7aa6f099440047b898a892349dbcb60dd5cd90611b84908c908a9033908e90612a6d565b60405180910390a150505050505050505050565b8051602081830181018051600082529282019190930120915280548190611bbe90612747565b80601f0160208091040260200160405190810160405280929190818152602001828054611bea90612747565b8015611c375780601f10611c0c57610100808354040283529160200191611c37565b820191906000526020600020905b815481529060010190602001808311611c1a57829003601f168201915b505050505090806001018054611c4c90612747565b80601f0160208091040260200160405190810160405280929190818152602001828054611c7890612747565b8015611cc55780601f10611c9a57610100808354040283529160200191611cc5565b820191906000526020600020905b815481529060010190602001808311611ca857829003601f168201915b50505050600283015460038401546005850154600686018054959693956001600160a01b0384169550600160a01b90930460ff16939192611d0590612747565b80601f0160208091040260200160405190810160405280929190818152602001828054611d3190612747565b8015611d7e5780601f10611d5357610100808354040283529160200191611d7e565b820191906000526020600020905b815481529060010190602001808311611d6157829003601f168201915b5050505050905087565b3360009081526002602052604090206003015460ff1615611deb5760405162461bcd60e51b815260206004820152601960248201527f456e7469747920616c726561647920726567697374657265640000000000000060448201526064016102b9565b6040518060800160405280848152602001836004811115611e0e57611e0e6122ab565b81526020808201849052600160409283015233600090815260029091522081518190611e3a90826127cf565b50602082015160018083018054909160ff1990911690836004811115611e6257611e626122ab565b021790555060408201516002820190611e7b90826127cf565b50606091909101516003909101805460ff19169115159190911790556040517f67ad3baae3c8279fb01d6c353d23c4ba1b9cb9ca17f8445388579d00a229cd5090611ecb90339086908690612ab7565b60405180910390a1505050565b828054828255906000526020600020908101928215611f1e579160200282015b82811115611f1e5782518290611f0e90826127cf565b5091602001919060010190611ef8565b50611f2a929150611fca565b5090565b60405180610100016040528060608152602001606081526020016000815260200160006001600160a01b0316815260200160006003811115611f7257611f726122ab565b81526020016060815260200160008152602001606081525090565b508054611f9990612747565b6000825580601f10611fa9575050565b601f016020900490600052602060002090810190611fc79190611fe7565b50565b80821115611f2a576000611fde8282611f8d565b50600101611fca565b5b80821115611f2a5760008155600101611fe8565b634e487b7160e01b600052604160045260246000fd5b600082601f83011261202357600080fd5b81356001600160401b0381111561203c5761203c611ffc565b604051601f8201601f19908116603f011681016001600160401b038111828210171561206a5761206a611ffc565b60405281815283820160200185101561208257600080fd5b816020850160208301376000918101602001919091529392505050565b600080600080608085870312156120b557600080fd5b84356001600160401b038111156120cb57600080fd5b6120d787828801612012565b94505060208501356001600160401b038111156120f357600080fd5b6120ff87828801612012565b9350506040850135915060608501356001600160401b0381111561212257600080fd5b61212e87828801612012565b91505092959194509250565b6000806040838503121561214d57600080fd5b82356001600160401b0381111561216357600080fd5b61216f85828601612012565b95602094909401359450505050565b60005b83811015612199578181015183820152602001612181565b50506000910152565b600081518084526121ba81602086016020860161217e565b601f01601f19169290920160200192915050565b610140815260006121e361014083018d6121a2565b6001600160a01b038c811660208501528b166040840152828103606084015261220c818b6121a2565b90508281036080840152612220818a6121a2565b90508760a08401528660c08401528560e084015282810361010084015261224781866121a2565b905082810361012084015261225c81856121a2565b9d9c50505050505050505050505050565b80356001600160a01b038116811461228457600080fd5b919050565b60006020828403121561229b57600080fd5b6122a48261226d565b9392505050565b634e487b7160e01b600052602160045260246000fd5b600581106122d1576122d16122ab565b9052565b6080815260006122e860808301876121a2565b6122f560208401876122c1565b828103604084015261230781866121a2565b915050821515606083015295945050505050565b60006020828403121561232d57600080fd5b81356001600160401b0381111561234357600080fd5b61234f84828501612012565b949350505050565b600481106122d1576122d16122ab565b60808152600061237a60808301876121a2565b828103602084015261238c81876121a2565b9150508360408301526123a26060830184612357565b95945050505050565b600082825180855260208501945060208160051b8301016020850160005b838110156123fb57601f198584030188526123e58383516121a2565b60209889019890935091909101906001016123c9565b50909695505050505050565b6020815260006122a460208301846123ab565b6000806040838503121561242d57600080fd5b82356001600160401b0381111561244357600080fd5b61244f85828601612012565b92505061245e6020840161226d565b90509250929050565b6000806040838503121561247a57600080fd5b6124838361226d565b946020939093013593505050565b6020815260006122a460208301846121a2565b602081526000825161010060208401526124c26101208401826121a2565b90506020840151601f198483030160408501526124df82826121a2565b91505060408401516060840152606084015161250660808501826001600160a01b03169052565b50608084015161251960a0850182612357565b5060a0840151838203601f190160c085015261253582826123ab565b91505060c084015160e084015260e0840151601f19848303016101008501526123a282826121a2565b600080600080600080600060e0888a03121561257957600080fd5b87356001600160401b0381111561258f57600080fd5b61259b8a828b01612012565b9750506125aa6020890161226d565b955060408801356001600160401b038111156125c557600080fd5b6125d18a828b01612012565b95505060608801356001600160401b038111156125ed57600080fd5b6125f98a828b01612012565b9450506080880135925060a0880135915060c08801356001600160401b0381111561262357600080fd5b61262f8a828b01612012565b91505092959891949750929550565b60e08152600061265160e083018a6121a2565b8281036020840152612663818a6121a2565b604084018990526001600160a01b038816606085015290506126886080840187612357565b8460a084015282810360c08401526126a081856121a2565b9a9950505050505050505050565b6000806000606084860312156126c357600080fd5b83356001600160401b038111156126d957600080fd5b6126e586828701612012565b9350506020840135600581106126fa57600080fd5b915060408401356001600160401b0381111561271557600080fd5b61272186828701612012565b9150509250925092565b6000825161273d81846020870161217e565b9190910192915050565b600181811c9082168061275b57607f821691505b60208210810361277b57634e487b7160e01b600052602260045260246000fd5b50919050565b601f821115610f6057806000526020600020601f840160051c810160208510156127a85750805b601f840160051c820191505b818110156127c857600081556001016127b4565b5050505050565b81516001600160401b038111156127e8576127e8611ffc565b6127fc816127f68454612747565b84612781565b6020601f82116001811461283357600083156128185750848201515b600184901b600019600386901b1c198216175b8555506127c8565b600084815260208120601f198516915b828110156128635787850151825560209485019460019092019101612843565b50848210156128815786840151600019600387901b60f8161c191681555b50505050600190811b01905550565b6080815260006128a360808301876121a2565b82810360208401526128b581876121a2565b604084019590955250506001600160a01b039190911660609091015292915050565b634e487b7160e01b600052603260045260246000fd5b60008083546128fb81612747565b600182168015612912576001811461292757612957565b60ff1983168652811515820286019350612957565b86600052602060002060005b8381101561294f57815488820152600190910190602001612933565b505081860193505b509195945050505050565b818103818111156110f457634e487b7160e01b600052601160045260246000fd5b81810361298e575050565b6129988254612747565b6001600160401b038111156129af576129af611ffc565b6129bd816127f68454612747565b6000601f8211600181146129ef5760008315612818575081850154600184901b600019600386901b1c1982161761282b565b600085815260209020601f19841690600086815260209020845b83811015612a295782860154825560019586019590910190602001612a09565b5085831015612a475781850154600019600388901b60f8161c191681555b5050505050600190811b01905550565b634e487b7160e01b600052603160045260246000fd5b608081526000612a8060808301876121a2565b8281036020840152612a9281876121a2565b6001600160a01b03958616604085015293909416606090920191909152509392505050565b6001600160a01b0384168152606060208201819052600090612adb908301856121a2565b905061234f60408301846122c156fea2646970667358221220afd240bc87ace94d1965249d9daaa24f8ac99d33cf130097e5718cedb8fb735f64736f6c634300081c0033",
  "linkReferences": {},
  "deployedLinkReferences": {}
}